:100000006F20802200000000601A0000641A0000C7
:1000100000000000000000000000000000000000E0
:1000200000000000000000000000000000000000D0
:10003000F621000000000000F82100000000000090
:10004000FA210000FC210000FE2100000022000037
:100050000222000004220000062200000822000004
:100060000A2200000C2200000E22000010220000D4
:1000700012220000161E00001622000018220000A6
:100080001A2200001C2200001E2200002022000074
:100090002222000024220000BC1D000000000000FD
:1000A000511126C022C206C4828282441244A24058
:1000B000310182802A86014593F6150091C232955E
:1000C00085810606F5F9828000000000634E050276
:1000D00063C305042E86AA857D5515C285466378BF
:1000E000B6006356C00006068606E36CB6FE014500
:1000F00063E4C500918D558D85820582F5FA828075
:100100008682C93F2E8582823305A04063D70500D1
:10011000B305B040C1B7B305B0408682653F330533
:10012000A0408282868263C70500634905005D376F
:100130002E858282B305B040E35B05FE3305A04007
:10014000513F3305B040828200003D432A876373EC
:10015000C3029377F700BDEFADE5937606FF3D8AC6
:10016000BA960CC34CC30CC74CC74107E36BD7FE10
:1001700011E28280B306C3408A0697020000969679
:100180006780A6002307B700A306B7002306B700C1
:10019000A305B7002305B700A304B7002304B700E5
:1001A000A303B7002303B700A302B7002302B700DD
:1001B000A301B7002301B700A300B7002300B700D5
:1001C000828093F5F50F93968500D58D9396050162
:1001D000D58D61B793962700970200009696868288
:1001E000E78086FA9680C1171D8F3E96E374C3F8A8
:1001F000A5B737370140835707000E0513758503F0
:10020000C207C18393F777FCC207C1832310F700AD
:10021000835707005D8D2310A7008280EFF25FE80F
:10022000B7170240984F37140140856613670701DE
:1002300098CF1840C106B7340140419B18C0184000
:100240001D451367370018C0054718C8984F558FCC
:1002500098CF23900400713F83D70400370710FF25
:100260007D17C207C1832390F40083D7040093E76E
:1002700007202390F4001C40F98F1CC01C40370756
:10028000B000D98F1CC083D70400370700F17D1759
:1002900093E747102390F40083D70400C207C1837B
:1002A0002390F4001C40F98F1CC01C403707000B42
:1002B000D98F1CC01C4037070040920791831CC097
:1002C0001C40D98F1CC0D5B3373701408356070077
:1002D000FD779387F77FF58F2310F700835707008B
:1002E00093E707042310F7008280B7370140239675
:1002F000A7003737014083578700898BEDDF010066
:100300003737014083578700858BEDDF0355C700E2
:100310001375F50F82808347350003472500A20738
:10032000D98F03471500A20703450500D98FA207FF
:100330005D8D82805C49F915F91763FBF500EFF2DA
:100340003FD62A840355A500B5331C543E95B1BB56
:10035000014582801C419DC33E8793050002130620
:10036000A00305078306F7FF13F3F60F63F2650298
:10037000E399C6FE938627006304D700FD5711A8B2
:100380000386070093060003FD576314D60018C1C7
:1003900081473E85828011E9814725459CC1828045
:1003A000254581479CC1110109B3EFF27FCF1C4164
:1003B00071112A84F5D703C707007DD38356450002
:1003C00003D76700E39EE6FC03C517002EC0EF10BD
:1003D000C03C0589824569F51C40E9B783C7B50172
:1003E00003C7A501A207D98F0D47631AE50003C70C
:1003F000550183C645012207558F4207D98F3E8597
:1004000082808347450081E781473E858280EFF205
:100410003FC99304050350552A84034515008546BA
:10042000A685EF10A04F85471DE550541C50184C71
:1004300023020400B307F64063FEE700834634005E
:1004400089476399F6000345140085463A96A685C8
:10045000EF10C04C81473E8589B9EFF27FC45855F3
:1004600071112EC001446304B702AA84593F2A8443
:10047000824711ED03C514003E868546938504032B
:10048000EF100043824719C10544FD57DCD4228593
:10049000110121B9EFF2DFC0FD575CD52302050041
:1004A0002A84653F914769E98344F4228347E42223
:1004B0001307B00EA204DD8C834704036388E700B2
:1004C000E10793F7F70F05476361F70AAD67938775
:1004D00057A5639DF400B73500002146938545B9C3
:1004E00013052408EF206051814759C58347C40391
:1004F0000347B403A207D98FC207C187130700209F
:100500006395E7060347D4032DC39307F7FFF98FDD
:10051000A9EF8347F4030347E403A207D98FB1C7C8
:10052000834704040547FD176361F70483472404E8
:1005300003471404A207D98F8DCB83474404034794
:100540003404A207D98F1307F0076368F700130577
:100550000405D133C167636AF50003477404834718
:10056000640422075D8F814701EB2D67130757A5B0
:1005700089476383E4008D473E8505BE854763F563
:10058000B70CEFF2FFB158496111AA8463F9E50293
:100590000347050089462E846306D7068D4663050A
:1005A000D708631EF70093D715001851AE9793D55F
:1005B0009700BA953EC05535824709C5FD573E851F
:1005C0002101E5B41387170093F7F71FA69783C699
:1005D00007039C50935597002685BE9536C23AC0B6
:1005E000AD3D69FD0247924605881377F71FBA941F
:1005F00083C70403A207D58F19C09183C9B7D20757
:10060000D18375BF1C51A181BE95813D45F906047A
:10061000938404031374E41FA29483C7140003C7D4
:100620000400A207D98F61BF1C519D81BE9535354D
:1006300051F513152400938404031375C51F2695E3
:10064000D9399317450055BF85473E858280EFF223
:100650003FA51301C1FC23A0050032842EC0DD3963
:100660002D47634E0502931725003705002013051B
:1006700005043E95044131479DC082451374E40F43
:1006800084C103C7040005C303C51400EF10E010C4
:100690001377150009EB01C4118911C129473A8567
:1006A0001301410319B403C5140023800400EF10A3
:1006B000C00F937615000D47FDF219C0118979FD21
:1006C00081452685C13B0947631AE504401093879D
:1006D000641F9386642322873E853AC436C23EC097
:1006E0001D3922478247924608C3C1071107E39587
:1006F000F6FE930704010C400D4581C926853EC0D6
:10070000513B054782476371A7021104E39587FEB9
:1007100091470547E305F5F8354751B79146054739
:10072000E30FD5F6E36AA7FE03C7C40383C6B40389
:100730002207558F4207418793060020E31ED7FC0E
:1007400083C7740403C76404A207D98F6388071C96
:100750003EC0DC5403C7040405463EC282479306EC
:10076000F7FFA381E4009CCC93F6F60FE366D6FA7C
:1007700083C2D40393960201C1822395D400C9DEBB
:100780009386F2FFB3F65600C1FA83C6240403C66B
:100790001404A206D18E93970601C1873EC68357E3
:1007A000C1003EC42394F40093F6F700B5F603C4E9
:1007B000440483C634042204558C09E813850405D7
:1007C00016CA3AC8893ED24242472A8483C6F403F5
:1007D00003C6E40316D0A206D18E36C895DE824544
:1007E0003A85C938A247C2462ACC13D64700369666
:1007F00036CE2A96E362C4F28252118C2285968507
:1008000016C832CAC138C242E36854F03707001034
:100810005517E363A7F04167551752466243F24606
:100820006372A7120D44924713072500D8C83E965D
:10083000BE9690D4DCCC94D00D466316C40E83C60D
:10084000B40503C6A405B247A206D18EDD8EC2064A
:100850003AC4C186E39206EC1385C4056D3C224779
:10086000C8D01315270082471305F51F2581E3E53E
:10087000A7EA7D5798C8D8C4130700F8A382E400FC
:100880000D47631CE40603C7140683C6040622074B
:10089000558F4207418785466311D70692472685C3
:1008A000938517005D3E31E903C7F42283C6E42235
:1008B000A38204002207558F4207ED764187938675
:1008C00056A5631CD70213850403B1343757614121
:1008D000130727256313E502138544212D3C377741
:1008E000416113072727631AE50013858421253406
:1008F00088C81385C4210534C8C4B7060020938670
:10090000460403D70600238084000507420741837D
:100910002390E6002393E400014751B31385440577
:10092000DD3A2AC03DB5A247E38807DE9A96D4D0C7
:10093000894613151700E308D4F23A950581058B13
:100940003A9515B7056455143334A4000504E1BD88
:10095000EFF20FF51C45232805007111AA84004110
:1009600095EB8346040009476374D700585015E39C
:100970000357840009E7094511016FF00FF3585040
:1009800098CCDCC89C4CE5DB13040403C0CC0145C7
:10099000E5B7BA870357A40019EF8840BE85F93E32
:1009A0007D57AA876300E5020547E376A7FC584810
:1009B000E365E5FEC9B7BE8522853EC0A53A88CC71
:1009C0008247C1B705454DBFEFF28FED8544511108
:1009D000894663F8B40A5C49894663F4F50A3284AF
:1009E00003460500AE876309D60A8D466300D60E1E
:1009F000894663189608145193D41500AE942EC2FC
:100A000093D59400B6952AC0893CAA863DE9024751
:100A10009247138314001306070393F4F41FB305DE
:100A2000960093F417009377F40F89CC83C70500E1
:100A30000565411593F6F70093174400E98FD58FAC
:100A400093F7F70F2380F50085472302F7001C5327
:100A5000935593003A85BE9532C41AC23AC0F53A0E
:100A6000AA8605E11243224602471373F31F1A9622
:100A700089CC11801374F40F23008600854723026C
:100A8000F700368531016FF04FE283470600218081
:100A90003D88C19B5D8CCDB71451A1813EC2B695F6
:100AA0002AC0653AAA8671FD924702478607130657
:100AB000070393F7E71FB297238087004204418022
:100AC0002180A38087002302970065BF14519D8178
:100AD0003EC2B6952AC05132AA860247924755F1C6
:100AE0008A071306070393F7C71FB2972AC43E85E8
:100AF0003AC23EC0EFF03F82370600F01204824750
:100B0000718D1180498C1356840012472380870011
:100B1000A380C7001356040161802381C700A3810D
:100B2000870023029700A246A9BFEFF26FD75111A9
:100B30002AC22EC0004181E9544481C65C4863E664
:100B4000F60285461DA02285153C8546AA8463E7EA
:100B5000A6008544268531016FF02FD5FD56630D23
:100B6000D50A5448E368D5FE82461C4899E381447F
:100B7000D5B78247639CF60250489384160063E31E
:100B8000C40089449247A68536C48843C53A0546C1
:100B9000E301C5FCFD556301B508A24629C15C44CB
:100BA0006376F600504863F3C700BE86B6845048AB
:100BB000850463E6C4008547E3FBD7FA894492477E
:100BC000A68536C488435D3A01CD0546E303C5F8E2
:100BD0007D566303C504A246E39BD4FC49BFF9D408
:100BE0007D56A6852285CD330DE5824791EF50488D
:100BF000144844C479166373D6028346540093E6BE
:100C00001600A302D400B9B78245268622856D3B23
:100C100079DD8547E31FF5F2FD542DBFFD1614C89D
:100C2000E9BFEFF2EFC71C49211137072000938776
:100C300007023EC0044163E4E700232C0500184D81
:100C4000914615C78247AE862A8493F7F71F3EC2A6
:100C5000E1E34C49050718CD99ED824783D684001E
:100C600013D757006366D70A232C040091463685B4
:100C700061016FF08FC303D7A40082477D1713D69D
:100C80009700718F51E7268536C4EFF03F8F0546F8
:100C90002A87A2466364A6008946D1BFFD55631426
:100CA000B5008546E9B7CC48636EB504D5DE4C483F
:100CB0002285A53D9D4645DD0546E30FC5FCFD5655
:100CC0002AC4E300D5FE2685EFF0AFF379F9224779
:100CD0002685BA853AC8EFF0EFE5938704032AC466
:100CE000C8D41306002081453E853EC6EFF0EFC50F
:100CF0004247014383D6A4006365D30283D6A40090
:100D0000E311D3FA58C8BA852685EFF0AFE208CCD4
:100D10008247124781461CC893870403BA975CCC6C
:100D2000B9B7A247B24503C51400338667008546AC
:100D30003ACA1AC8EF00903E4243524761F1050398
:100D400055BFEFF2EFB541112AC468002EC232C080
:100D50002EC6EFF02FE063440504B7070020138789
:100D600007049316250036970C4393870704024621
:100D700089C52320070023800500224719C7A30047
:100D8000A70023000700B69798C3014511C6014686
:100D90002C004800EFF0BF8B41016FF00FB12D45E3
:100DA000E5BFEFF2EFAF5D712ECEA54763080540BA
:100DB0009377F60332C42A843E860C1068083EC23C
:100DC000EFF0FF88AA876318054682579306F00262
:100DD0001307C0053EC63ED2F2473EC08247838716
:100DE00007006380D712638EE710824702D603C7DD
:100DF0000700FD4763E1E71C930700F84810A307CD
:100E0000F104B936AA87630505282247718B630C64
:100E10000732638B07281147639FE74048109254BD
:100E2000053EAA8763150540F2552685EFF0EFE2EF
:100E3000AA87631E053E86471307500E83C7070027
:100E4000639EE724F2552685EFF02FE1AA8763140D
:100E5000053E0645130600028145EFF00FAF06453B
:100E60002D46CC00EF10D03B85472382F4009247FB
:100E700093E787003EC28647930660061307500536
:100E80002388D700A388E70023870700A3870700EC
:100E900086478254238CD700A38CE700238B07005E
:100EA000A38B0700864703C50400BE853EC0EFF054
:100EB000EFD28247930600022A87A385D700864790
:100EC0008D46238D0700A38D070003C6040063161B
:100ED000D600238A0700A38A07008647238E0700CF
:100EE000A38E0700238F0700A38F07008547238267
:100EF000F400630707268547925663E5E71C894798
:100F00001DAE824785073EC0D1BD8507D5A8638A3F
:100F100054306364D7009947CDBD63D7050093F47F
:100F2000F407B29483C404003EC8B7370000A68516
:100F3000138507BA3ACC36CAEF10103C69FD938589
:100F4000F4F90D6693F5F50F6545C247D246624741
:100F50009303F0021303C0059302E002130646B1A7
:100F60006365B500811493F4F40F8C08BA95238A55
:100F700095FE05079DA091470347F10489CB914653
:100F8000E395D7E8118BE31207E89547BDBD118BB8
:100F9000631007108347A102C18BE5DBB24793853D
:100FA0000703D25793F7F71FBE95B24703C5070053
:100FB000EFF0CFC22AD62D4693050002C800EFF00D
:100FC000CF980D6601478147A1469303F0021303B2
:100FD000C0059302E002130646B18245850713055A
:100FE0000002BE958385F5FF93F4F50F63729502B9
:100FF00063847400E39D64F09305F0021306C0055A
:101000008246BE9683860600E381B6F0E38FC6EE85
:101010008246B6973EC0E30007F0034741049307BA
:10102000500E6315F70095472302F10413070002E1
:101030009147637897008246838606006353D70002
:1010400081474810A307F1049254EFF07F90AA87DC
:1010500005F5F2552685EFF04FC0AA8711FD2AC885
:10106000064503470500E30807F00347B5009376FC
:10107000F7032305D102218B01EB2D46CC00EF10A5
:10108000D017C247E30A05EE81454810593EC1B763
:101090008307F104E3C107E8814785BBE38407DAEE
:1010A00085454810BD3EB5BB8347A102C58B639300
:1010B0000718A247918B63900716A24713F6870083
:1010C00045C255BBDC4AE37CF7E2C454BA871255EB
:1010D000BE853AC436C83EC0EFF04FCA224721C988
:1010E0003AC60546E30DC5E07D562AC46307C5121E
:1010F0008247C2460146BE85368536C0EFF0DF8C9A
:10110000AA87631A0512824622433247D04A9C4A74
:101110009305E6FF63FAB70085079CCA83C75600AC
:1011200093E71700A382F6009A87E362C3FA025599
:10113000A6853AC0EFF06FB202478256AA877D17A4
:10114000D8C619CDCDA86398070E8347A10213F71F
:10115000070171E722471376270019C2858BF9EB47
:101160009247A18B89C7924793E707043EC28257F3
:101170008644D85744D0A68518D003C507003EC47E
:10118000EFF0CFA508C42AC01385C401EFF0AF98D3
:10119000A24748C4AA8403D767001CC0A308040060
:1011A0002312E4001247232E0400232A04002308FC
:1011B000E40013770702824511E781473E856161AC
:1011C0006FE0BFEE7DD983D7A70048C8A60763E3C9
:1011D000970281470CCCA5E33EC013F7F41F71DFE3
:1011E0000255EFF02F95E30C05D0A580AA9444CCCE
:1011F0008247E9B708403EC0EFF04FB88247054745
:10120000AA859D8C6377A7007D57E312E5FC85478F
:10121000D1B78947C1B7A14739A8854729A89147C0
:1012200019A82D47E389E6CE2147AD467DB3114786
:101230006393E7009D472320040049B7EFE25FE690
:1012400021112EC223A006004C08AA84328436C67F
:10125000EFF06F942AC02DE983C714013EC0ADE7BB
:1012600003C70401098B63070718D848B306870032
:1012700063F4E6001344F7FF31C0D8489376F71FB4
:1012800063970612D2461356970083D6A600FD1622
:10129000B3F7C6003EC4A9EB09EF8844814519C9DC
:1012A00005476317E5020947A388E40089473EC064
:1012B00021A88C4C2685EFF05F877DF103C70401E0
:1012C000136707042388E400024561016FE0FFDD36
:1012D0007D576317E5000547A388E4008547C1BF34
:1012E000984488CC11E388C45245D84C5455639532
:1012F000E600EFF00F9165F1D2428C4C168516C8CE
:10130000EFF04F834DD1A2471307F01FC242338342
:10131000A700637F870683D6A20013579400338605
:10132000E70063F4C6003387F640924503C5120018
:10133000BA861A863AC81AC4D52351FDD24622432A
:101340004247CC56338365406371E30292472603DC
:101350001385060313060020B385670036C4EF101B
:10136000206CA24642472382060093169700B2479C
:10137000158C9843369798C3D8489247B697BA9633
:10138000D8443EC2D4C86373D7003687D8C4EDB5FD
:10139000D448D84463EBE60016851AC4EFF06F8694
:1013A0001DF9524722432326670223AE6400D84822
:1013B0009376F71F13070020158FA28663738700AB
:1013C000BA86CC4C524536C4EFF02F89E31505F0B0
:1013D0005245D848A24692451377F71F13050503D7
:1013E00036863A95EF10C06352470546A24623025F
:1013F000C700B5BF9D4765BDEFE29FCA61114C00B4
:101400002A84EFE05FF9631805168347040193F718
:101410000704638207160C501245EFF00F84631C1B
:1014200005145C5003C7B70013670702A385E700E4
:101430001844104093160701C182A182A38DD700E2
:10144000238DE700034606008D466318D6004183CE
:10145000238AE7002183A38AE70058449244238B20
:10146000070093568700238EE700A38ED70093567C
:1014700007016183A38FE70013076006238CE70051
:1014800013075005A38CE700238FD700A38B070019
:1014900023890700A389070005472382E4002685E6
:1014A000EFE03FF679E183C604000D476398E60A52
:1014B00083C6540005476393E60A83C2140013836E
:1014C00004031306002081451A8516C0EFE0FFC70C
:1014D0001307A0FAA387E422130720052388E40258
:1014E000A388E402130710062389E402A38BE420F7
:1014F000984893061004A389D402238BD4209356D2
:101500008700238CE420A38CD420935607016183A9
:1015100013062007A38DE420D844238AC420A38A7D
:10152000C420D04C8242238DD42093568700930749
:101530005005238EE420A38ED42005069356070180
:101540006183238FD420AA852387F422A38FE420EC
:10155000D0D485461685D926A382040003C514007D
:101560000146814589213335A0008347040193F763
:10157000F7FB2308F40021016FE03FB3EFE25FB215
:1015800071112A84953D01E98A852285EFE0BFE04B
:1015900019E12320040011016FE03FB1EFE25FB0D9
:1015A0002A84B304B5001305F00FEFE01FD405043F
:1015B000A30FA4FEE31994FE6FE03FAFEFE25FAE2E
:1015C0000564711113048438854513053100F9371A
:1015D000034731009307F00F6308F7001305400637
:1015E0007D14EF1080346DF03335800011016FE011
:1015F000DFABEFE2FFAA7111B717014005471305F2
:10160000310098CB8545593F11016FE01FAAEFE2E9
:101610003FA96111B7170140416798CB8545130574
:101620007100AD3F613F2AC011E5E137024521015C
:101630006FE0BFA70545E5BFEFE29FA661112AC095
:10164000AE841304803E85454800893F83464100AF
:101650001307F00F6398E600130540067D14EF10A2
:10166000C02C75F0034741009307E00F0145631953
:10167000F7000245A6851D37480089450537054511
:1016800021016FE09FA2EFE2BFA12A84B304B5005D
:1016900005040345F4FFEFE05FC5E31B94FE6FE034
:1016A000DFA0EFE2FF9F93178501E18751112A84A4
:1016B000AE8463DC0700814513057003DD37054701
:1016C000AA876364A7081374F407B147631AF40682
:1016D000936704042302F10093D78401A302F1006D
:1016E00093D704012303F10093D78400A303F100EF
:1016F000230491009307500919C4214785476314B7
:10170000E4009307700899454800A304F100A53F41
:10171000B1476316F400854513053100413529446E
:101720008545130531009D3D83473100139787019F
:101730006187635C07007D141374F40F75F031A0AA
:101740004D3DF1359307F00F41F53E8531016FE0D6
:10175000DF95EFE2FF947111AA842E8485351DC9AF
:101760000A85854523008100393F9307D00F054541
:101770006302F402930500202685313789450A85E6
:10178000313D0A858545193D034501007D896D156B
:101790001335150011016FE05F9111E5B7070020C7
:1017A00003C50700828005458280EFE27F8F6111CB
:1017B0000D446315050E096513050571EF10E0165C
:1017C0000D45EFE01FA3B7170140054798CB29440B
:1017D0007D14854548001374F40FC93375F88145AD
:1017E0000145C13585472A846314F5049305A01A81
:1017F0002145453DAA84631F850291454800793BF8
:101800008347610063969702034771009307A00A1C
:101810006310F7021304803EB70500401305900AD9
:10182000493539C11305803E7D14EF1000106DF469
:10183000014491A881451305900AA5356371A4025E
:1018400085473EC09304803E02458145993D39C994
:101850001305803EFD14EF10400DFDF4D1BF93073A
:10186000900A3EC02144F9BF81451305A003153DF0
:1018700061F1914548001D3383474100614493F76E
:10188000070491E32144B70700202383870413341E
:101890001400B707002023808700A13B2285210187
:1018A0006FE0BF80930500204145E53B51F1E1BF6A
:1018B000B707002083C70700858B5D8D31EDEFE210
:1018C0002FFEB707002083C7670471112E87C18BD5
:1018D000368491E326068544B3B48400C504B285FA
:1018E00026853AC07D3B024715E1930500203A85E5
:1018F0003AC0993311C502477D141307072075F4C8
:10190000C9476395F40081453145613BDD3133358D
:10191000800011016FE06FF90D458280B70700204C
:1019200083C70700858B5D8D2DEDEFE26FF7B7075D
:10193000002083C767047111AE8413F70701368452
:1019400011E3260605476312E402B2856145913B27
:1019500039E59305E00F2685ED3B13341500513929
:101960003335800011016FE04FF4B18B99C7A28528
:101970001305700932C035330246B285654515330B
:1019800079FD9305C00F2685E93309C57D1493843D
:10199000042065F89305D00F0145653B69F10544C6
:1019A0007DBF0D458280B707002083C70700858B68
:1019B0005D8D4DE5EFE2CFEE854731113284AE8487
:1019C0006383F50281C98D4711456398F50093073C
:1019D000000881A82D39133515002AC01939024590
:1019E00051016FE08FEC81452545653919C10545E9
:1019F000EDB7C145480089317DD903464100834692
:101A0000D1008347C10019820347B100631E9600CD
:101A1000420737063F00718FA2070507B697BA97AE
:101A2000AA071CC0014555BF0A079983BA97034707
:101A3000A1000566130606C02A07718FBA970346F0
:101A4000E1000347910086061D823D8B3297998AFB
:101A5000BA968507E516B397D700E1B70D458280A2
:101A60007300203001A0EFE2AFE31165111185454D
:101A70001305050202C002C202C402C602C802CA9D
:101A800002CCEF00F043930700022310F10037145B
:101A900001408D473EC28A85E147130504403EC49C
:101AA000EF00701D930700042310F1008A85914711
:101AB000130504403EC4EF00101CF1673744014099
:101AC000938707203EC66C00B7070C0013050480FF
:101AD0003ECA02C8231C0100EF00305085451305A3
:101AE0000480EF00305E71016FE02FDCEFE24FDB2E
:101AF00037440140AA84930704803E85930500047F
:101B0000EF00B05EB7470140938707807DD593957E
:101B10000401C18113050480EF00905C6FE0EFD8F1
:101B2000EFE20FD82A840305040019E16FE0EFD734
:101B300005046D3FCDBFEFE2AFD661112A84635A31
:101B400005041305D0025D3733048040A94737D719
:101B50009A3B3EC002C2930407A063639404A68527
:101B60002285EFE02FD71305050362056185BD3F90
:101B70002285A685EFE0CFD885472A843EC22685F8
:101B8000A945EFE02FD58247AA84FD173EC0F1F7A3
:101B900029A04DFD13050003913F21016FE0EFD017
:101BA0009247F1DF130500039137D1BFEFE24FCF2A
:101BB00051112A842E8701EE19EF930700032300A9
:101BC000F400A300040031016FE02FCE0504830769
:101BD0000400EDFFD5B7B7D79A3BA94401469387D8
:101BE00007A06368F70413061400BE853A8532C463
:101BF0003EC03AC2EFE00FCE8247124713050503FD
:101C00002300A400A3000400BE853A85EFE04FCF77
:101C1000224682472A87328405463E85A9453AC234
:101C200032C0FD14EFE00FCBAA8702461247D5F869
:101C300059BF65D6930600032300D400A300040017
:101C40000504E1BF8307050099E78387050091E755
:101C50002300050082800505F5B705058505A30F5E
:101C6000F5FEE5B781473307F5000307070019E3E1
:101C70003E8582808507C5BFEFE28FC2130141FD1B
:101C8000614681454808EFE04FCC8545414502C497
:101C900002C602C8EF00D022854513050020EF00E0
:101CA00030220145EF009016C1472C003715014046
:101CB000372401402314F10002C8EF00C07B130554
:101CC0000440ED23B7070E003ED04C0885471305AE
:101CD00004402304F10202CA02CC02CE02D2D52B68
:101CE0009D460546894513050440EF00A069B705E8
:101CF000000213050440EF00C0768545130504403B
:101D0000EF006074854513050440212D1305044040
:101D1000252D9304044026852D2D75FD13050440C3
:101D2000372401401D2D930404402685252D75FD83
:101D300005469305002213050440E52B9307D021A7
:101D40002310F10089472301F1000A8585473EC22F
:101D5000EF0050001301C1026FE02FB5EFE24FB466
:101D600031112E84AA8485450545EF0050172C00BB
:101D7000370500402316910023148100231501002C
:101D800023170100EF00701905468545370500400F
:101D9000EF00B020930760222310F1008947230150
:101DA000F1000A8585473EC2EF00C07A85453705B8
:101DB0000040EF00D01C51016FE02FAF130181FDF7
:101DC0002ACA2EC83705004085453EC006D216D027
:101DD0001ACE1ECC32C636C43AC2EF00701D8547FB
:101DE000631DF500854537050040EF00301E37259F
:101DF0000140854513050540952B92508252724350
:101E0000E2435245C2453246A24612478247130179
:101E1000810273002030797126CCB72401402ACA90
:101E20002EC81385044089453EC006D616D41AD262
:101E30001ED022CE32C636C43AC2392D8547631A27
:101E4000F5002A8413850440DD2B2390A1A623A44A
:101E500081A87244B250A25212538253E2445245B6
:101E6000C2453246A2461247824745617300203080
:101E7000EFE20FA3511185451305000202C002C213
:101E800002C4EF00F00337140140C1472310F100F2
:101E9000C1448D478A85130504403EC226C41304FD
:101EA0000440D12B04C831016FE02FA0EFE24F9F17
:101EB00031110945692DF924EF00F02371651305EF
:101EC0000520EF00D02DEFF01FBA7D335537B165F7
:101ED0009385F5B71305703E51353735000013056E
:101EE00005BBEFF0FFC337350000130505BCEFF06D
:101EF0003FC3B707002003A5470137340000EFF0C8
:101F00009FC31305C4BCEFF0BFC1EFE02FB1EFE0FA
:101F1000AFBB1305401FEF00F024B73500000546A6
:101F20009385C5B913858180EFE0BFE11008854531
:101F30000145EFF05FA737350000130505BDEFF051
:101F40003FBE42450581EFF01FBF37350000130546
:101F500085BDEFF0FFBC22C4938781A89C43EDDFD1
:101F6000B7350000938505BE138541A6238201A6DF
:101F7000EFF05FCD138741A8835507000546138511
:101F800041A6EFF0BFC2B7350000938545BE13856B
:101F900041A6EFF03FCB83D501A60546138541A6A8
:101FA000EFF0DFC0A247138541A69385C7BCEFF0D1
:101FB0007FC9138541A6EFF0BFB6371701409307DD
:101FC00007403EC04147B7350000D8CB1306200379
:101FD000938585BE138581A3EFE0BFDC938741A87D
:101FE0003EC23DE5138541A6EFF0DFC72A867400A7
:101FF000938541A6138581A3EFF04FA4138581A398
:10200000EFF0CFD71DED138541A6EFF0BFC5B24766
:102010006319F50237350000130545BFEFF05FB0D7
:102020008247414798CB9247124783D707008507DD
:10203000C207C1832310F700938781A823A007005C
:1020400021BF37350000130505C0EFF07FADE1BFBC
:1020500037350000130505C1CDBFB71702409843BF
:10206000B706FFFC61111367170098C3D843758F3B
:10207000D8C39843B706F7FEFD16758F98C39843EB
:10208000B706FCFFFD16758F98C3D843C176FD16C1
:10209000758FD8C337079F0098C7984F13670702FB
:1020A00098CF37170140832607401306074093F661
:1020B000F6F02320D7408326074093E60608232026
:1020C000D740094718CA02C002C2984FB70601405C
:1020D00021661367170098CFD842518FD8C2984312
:1020E000C16637060200558F98C3B71602400967CC
:1020F0009C42F18F3EC2824785073EC0924781E7EE
:102100008247E397E7FEB71702409C431397E70027
:102110006358070685473EC2124785476310F70696
:10212000B72702409843C176FD16719B98C3984328
:102130001367170098C3B7170240D843D8C3D843D2
:10214000758FD8C3D843C166558FD8C39843B70697
:102150000001558F98C3984393166700E3DD06FE90
:10216000D843B7160240719BD8C3D84313672700E2
:10217000D8C32147DC42B18BE39EE7FE2101828078
:1021800002C259BFEFD2DFF1371702405C43370478
:1021900000209146B18B130444016385D700A1460A
:1021A0006383D704B7376E01938707601CC0B716E7
:1021B0000240DC420840918313F7F700B707002084
:1021C00093874700BA9783C50700DC4293F5F50F64
:1021D00093F707083357B50081E7EFD0BFEF2A87A1
:1021E00018C06FD09FEC5C43B777DC02938707C0C1
:1021F00075BF01A001A001A001A001A001A001A044
:1022000001A001A001A001A001A001A001A001A0C6
:1022100001A001A001A001A001A001A001A001A0B6
:1022200001A001A001A001A097E1FF1F938181619E
:10223000138101FC171500001305C59E97E5FF1FCC
:10224000938545DC17E6FF1F1306C6DF63FAC5005A
:102250008322050023A0550011059105E3EAC5FE80
:1022600017E5FF1F130505DE938541A96377B500C8
:10227000232005001105E36DB5FE9302000873905D
:1022800002308D427390428097E2FFFF938282D7A3
:1022900093E2320073905230EFF03FDC970200007F
:1022A000938202C17390123473002030B72701402B
:1022B00093870740631EF500EFD29FDE8545130527
:1022C00000202D298145130500200D296FD0FFDD49
:1022D00082805C413707F1FF1307F7EF7D8FDC4108
:1022E0009441A207D58FD98F5CC11C4537F7F1FF08
:1022F0001307D77FD4457D8F9C49D58F944586069B
:10230000D58FD98F1CC55C55370710FF7D177D8F82
:1023100083C74501FD1793F7F70FD207D98F5CD517
:1023200082801C4589C593E717001CC58280F99BF4
:10233000EDBF5C4193F5F50F01C6DD8D4CC1828088
:1023400093C5F5FFFD8DDDBF1C4593E787001CC5D8
:10235000828008450D81058982801C4593E74700EE
:102360001CC5828008450981058982801C4591C56C
:1023700037075000D98F1CC582803707B0FF7D1703
:10238000F98FD5BFA54763F8B704138765FF931787
:1023900017008322C500BA971D433313F30013437C
:1023A000F3FF33735300B397F600B3E767005CC5E0
:1023B000994763E3C7047D16931726003E96585944
:1023C000FD47B397C70093C7F7FFF98FB395C500D3
:1023D000DD8D4CD982809397150003230501AE97BC
:1023E0001D473317F7001347F7FF33776700B3979D
:1023F000F6005D8F18C96DBFB14763E2C70265166D
:10240000931726003E961859FD47B397C70093C708
:10241000F7FFF98FB395C500DD8D0CD982804D167D
:102420001317260054553A96FD47B397C70093C734
:10243000F7FFF58FB395C500DD8D4CD582806845DB
:102440004205418182805C4189C593E707405CC1B8
:10245000828093F7F7BFE5BF08416D8D3335A0004B
:1024600082805C41370700FA7D17F98F5CC15C41BF
:10247000DD8D4CC182809C45611122C226C013F7BC
:10248000070113F3F70001C7D8413363E30003D614
:1024900005001377F60F29C78323050001471304AE
:1024A0008002930480048546B395E600B376B600B7
:1024B0006392D50293122700BD46B396560093C689
:1024C000F6FFB3F37600B3125300B3E372006397E1
:1024D00087064CC90507A146E317D7FC23207500E2
:1024E0001307F00F6378C70483234500A146130444
:1024F0008002930480040547B312D7003377560057
:102500006394E202139726000117BD45B395E500D9
:1025100093C5F5FFB3F375003317E300B36377009A
:1025200063928702232A550085064147E395E6FC1E
:10253000232275001244824421018280E39C97F893
:102540000CC949BFE39297FE23285500F1BF23A68B
:10255000A1A882809387C1A894430347050089E618
:1025600083472500920731A8944305466391C6042A
:10257000834725000346150092076314D60093E7AE
:1025800007F8B7E600E093F7F70FBA962380F64016
:102590008546935757003397E6005441ADC693875D
:1025A00007048A07B7E600E0B69798C382808C4399
:1025B00089466393D50283461500834725006365EA
:1025C000D6008A06B69779BF9386E6038A06B69741
:1025D00093F7F70F920765B790438D46631ED600B9
:1025E00083461500834725006364D6008606D9BF5D
:1025F0009386C6078606E1BF94439147E39AF6F8AF
:102600008347150085B79387070661BFB716024059
:10261000DC4241771307F77FF98F5D8DC8C2828056
:10262000EFD21FA8371702405C4391462A84B18B32
:102630006385D700A146638FD706B7376E019387AE
:1026400007601CC0B7160240DC42918313F7F70005
:10265000B70700209387C702BA9783C50700DC42FB
:10266000184093F5F50F93F707083355B70081E746
:102670003A85EFD03FA648C008C448C4B717024007
:10268000DC43AD83FD8B13D737008A07F18BD98FDD
:1026900093F637010D476373D700D1173707002032
:1026A00013078701BA9783C50700EFD0BFA208C8F8
:1026B0006FD0BF9F5C43B777DC02938707C051B7E9
:1026C00099C5371702401C4F5D8D08CF8280B71720
:1026D0000240984F1345F5FF798D88CF828099C5C8
:1026E000371702405C4F5D8D48CF8280B71702409C
:1026F000D84F1345F5FF798DC8CF828099C537171C
:1027000002405C475D8D48C78280B7170240D847BA
:102710001345F5FF798DC8C7828083570500373789
:102720000140130707C0C207C1836306E5003707EE
:1027300000406317E50003D7250093F7F7F8D98F1A
:1027400003D7650093F7F7CFC207C183D98F231052
:10275000F50083D745002316F50283D7050023141F
:10276000F502B7370140938707C06316F50083C7AA
:1027700085002318F5028547231AF50082808357C8
:10278000050091C593E717002310F5008280C2076A
:10279000C183F99BC207C183C5BF8357C50009C662
:1027A000DD8D2316B500828093C5F5FFFD8DD5BF65
:1027B000835705010355C500ED8F4205418189C747
:1027C0006D8D3335A00082800145828093C5F5FF71
:1027D000C205C1812318B5008280EFD27F8C835659
:1027E0000501F577FD17F58F83D6650003D7C50082
:1027F0002111D58F2318F5008356C500FD779387E7
:10280000379FF58F83D645002A842EC0D58F83D677
:102810008500D58F83D6A500D58F2316F500835765
:102820004501C207C18393F7F7CF5D8F231AE500F7
:102830004800EFF0FFDEB7470140938707808245ED
:102840006315F406C2470357C400139517003E955D
:1028500042070E0541873E958C41635A0704860561
:10286000EFD05F87930540062AC0EFD0BF8682472E
:1028700093144500930540063E85EFD07F8883572B
:10288000C400C207C18763D607020E059305400640
:1028900013052503EFD01F841D89C98CC204C18094
:1028A0002314940061016FD05F80B24769BF8A052D
:1028B00045BF12059305400613052503EFD09F8100
:1028C0003D89E1BF81C98357C5000967D98F2316A8
:1028D000F50082800357C500F977FD17F98FC5BF52
:1028E00093F5F51F2312B5008280035505006D8D09
:1028F0003335A0008280EFD2AFFAB707002003A5DE
:102900004701B7157A0093850520EFD0AFFC13750A
:10291000F50F2389A1A893175500898F8A073E9543
:102920000E052398A1A86FD04FF8EFD26FF737F4B8
:1029300000E05C40AA85F99B5CC003C521A9EFD0EB
:102940006FF708C8232404001C4093E717001CC03D
:10295000B7F700E0D843058B75DF9843799B98C3A0
:102960006FD0AFF4EFD2CFF337F400E05C40AA852C
:10297000F99B5CC003D501A9EFD0CFF308C823248D
:1029800004001C4093E717001CC0B7F700E0D843D1
:10299000058B75DF9843799B98C36FD00FF1EFD209
:1029A0002FF02A8411651111854513050502EFF0FA
:1029B0003FD1930700022310F100371501408D47E6
:1029C0003EC28A85E147130505403EC4EFF0BFAA29
:1029D00022C637440140B70708006C001305048085
:1029E0003ECA02C8231C0100EFF03FDF85451305F6
:1029F0000480C93D71016FD04FEB01476314E600BD
:102A000001458280B307E5000507B386E50083C76B
:102A1000070083C6F6FFE383D7FE3385D740828065
:102A2000B3C7A5008D8B3307C50081E78D4763E9E8
:102A3000C702AA876371E50C83C605008507850573
:102A4000A38FD7FEE3EAE7FE828083C605008507F1
:102A50008505A38FD7FEE3EAE7FE024411018280D9
:102A600093763500AA8791CA83C605008507850538
:102A7000A38FD7FE93F63700FDB79376C7FF138673
:102A800006FE63F5C706711122C0C04903A3050005
:102A900083A38500C0CB804D23A0670003A345001E
:102AA00080CFC04D23A2670083A2C50003A3050108
:102AB00093854502C0CF03A4C5FF23A4770023A6B6
:102AC000570023A867009387470223AE87FEE3EEF3
:102AD000C7FAE3F2D7F890419107910523AEC7FEFC
:102AE000CDBF90419107910523AEC7FEE3EBD7FE22
:102AF000E3E4E7F48280828093F5F50F83470500D5
:102B000091C76393B70082800505CDBF91C1014590
:102B100082800000809A45418E418F80454545491D
:102B200049498E8F9092924F994F555559999A9B3A
:102B30009C9D9E9F41494F55A5A5A6A7A8A9AAABB4
:102B4000ACADAEAFB0B1B2B3B4B5B6B7B8B9BABB4D
:102B5000BCBDBEBFC0C1C2C3C4C5C6C7C8C9CACB3D
:102B6000CCCDCECFD0D1D2D3D4D5D6D7D8D9DADB2D
:102B7000DCDDDEDFE0E1E2E3E4E5E6E7E8E9EAEB1D
:102B8000ECEDEEEFF0F1F2F3F4F5F6F7F8F9FAFB0D
:102B9000FCFDFEFF4641543332202020000000009F
:102BA0002A2B2C3A3B3C3D3E5B5D7C223F7F000064
:102BB00044617461204C6F67204144430A0D00005A
:102BC00053797374656D436C6B3A00000D0A000015
:102BD0005344206C656E3A00206B420D0A000000E1
:102BE00041443A003B0000006E657766696C652ED3
:102BF0007478740044415441204F4B0A0D0000008A
:102C000044415441204552524F20310A0D000000EA
:102C100044415441204552524F20320A0D000000D9
:102C20000100000001020304050607080102030475
:102C300005060708006CDC020204060804080C10F4
:102C4000081018201020304020406080010203044A
:102C50000506070801020304050607080000000036
:00000001FF
