:100000006F20700F00000000601A0000641A0000EA
:1000100000000000000000000000000000000000E0
:1000200000000000000000000000000000000000D0
:10003000C428000000000000C628000000000000E6
:10004000C8280000CA280000CC280000CE280000E4
:10005000D0280000D2280000D4280000D6280000B4
:10006000D8280000DA280000DC280000DE28000084
:10007000E0280000B2220000E4280000E62800008A
:10008000921F0000EA280000EC280000EE28000083
:10009000F0280000F22800005622000000000000B6
:1000A000511126C022C206C4828282441244A24058
:1000B000310182802A86014593F6150091C232955E
:1000C00085810606F5F9828000000000634E050276
:1000D00063C305042E86AA857D5515C285466378BF
:1000E000B6006356C00006068606E36CB6FE014500
:1000F00063E4C500918D558D85820582F5FA828075
:100100008682C93F2E8582823305A04063D70500D1
:10011000B305B040C1B7B305B0408682653F330533
:10012000A0408282868263C70500634905005D376F
:100130002E858282B305B040E35B05FE3305A04007
:10014000513F3305B040828200003D432A876373EC
:10015000C3029377F700BDEFADE5937606FF3D8AC6
:10016000BA960CC34CC30CC74CC74107E36BD7FE10
:1001700011E28280B306C3408A0697020000969679
:100180006780A6002307B700A306B7002306B700C1
:10019000A305B7002305B700A304B7002304B700E5
:1001A000A303B7002303B700A302B7002302B700DD
:1001B000A301B7002301B700A300B7002300B700D5
:1001C000828093F5F50F93968500D58D9396050162
:1001D000D58D61B793962700970200009696868288
:1001E000E78086FA9680C1171D8F3E96E374C3F8A8
:1001F000A5B737370140835707000E0513758503F0
:10020000C207C18393F777FCC207C1832310F700AD
:10021000835707005D8D2310A7008280EFF25FE80F
:10022000B7170240984F37140140856613670701DE
:1002300098CF1840C106B7340140419B18C0184000
:100240001D451367370018C0054718C8984F558FCC
:1002500098CF23900400713F83D70400370710FF25
:100260007D17C207C1832390F40083D7040093E76E
:1002700007202390F4001C40F98F1CC01C40370756
:10028000B000D98F1CC083D70400370700F17D1759
:1002900093E747102390F40083D70400C207C1837B
:1002A0002390F4001C40F98F1CC01C403707000B42
:1002B000D98F1CC01C4037070040920791831CC097
:1002C0001C40D98F1CC0D5B3373701408356070077
:1002D000FD779387F77FF58F2310F700835707008B
:1002E00093E707042310F7008280B7370140239675
:1002F000A7003737014083578700898BEDDF010066
:100300003737014083578700858BEDDF0355C700E2
:100310001375F50F82808347350003472500A20738
:10032000D98F03471500A20703450500D98FA207FF
:100330005D8D82805C49F915F91763FBF500EFF2DA
:100340003FD62A840355A500B5331C543E95B1BB56
:10035000014582801C419DC33E8793050002130620
:10036000A00305078306F7FF13F3F60F63F2650298
:10037000E399C6FE938627006304D700FD5711A8B2
:100380000386070093060003FD576314D60018C1C7
:1003900081473E85828011E9814725459CC1828045
:1003A000254581479CC1110109B3EFF27FCF1C4164
:1003B00071112A84F5D703C707007DD38356450002
:1003C00003D76700E39EE6FC03C517002EC0EF10BD
:1003D000C03C0589824569F51C40E9B783C7B50172
:1003E00003C7A501A207D98F0D47631AE50003C70C
:1003F000550183C645012207558F4207D98F3E8597
:1004000082808347450081E781473E858280EFF205
:100410003FC99304050350552A84034515008546BA
:10042000A685EF10A04F85471DE550541C50184C71
:1004300023020400B307F64063FEE700834634005E
:1004400089476399F6000345140085463A96A685C8
:10045000EF10C04C81473E8589B9EFF27FC45855F3
:1004600071112EC001446304B702AA84593F2A8443
:10047000824711ED03C514003E868546938504032B
:10048000EF100043824719C10544FD57DCD4228593
:10049000110121B9EFF2DFC0FD575CD52302050041
:1004A0002A84653F914769E98344F4228347E42223
:1004B0001307B00EA204DD8C834704036388E700B2
:1004C000E10793F7F70F05476361F70AAD67938775
:1004D00057A5639DF400B735000021469385054775
:1004E00013052408EF20305F814759C58347C403B3
:1004F0000347B403A207D98FC207C187130700209F
:100500006395E7060347D4032DC39307F7FFF98FDD
:10051000A9EF8347F4030347E403A207D98FB1C7C8
:10052000834704040547FD176361F70483472404E8
:1005300003471404A207D98F8DCB83474404034794
:100540003404A207D98F1307F0076368F700130577
:100550000405D133C167636AF50003477404834718
:10056000640422075D8F814701EB2D67130757A5B0
:1005700089476383E4008D473E8505BE854763F563
:10058000B70CEFF2FFB158496111AA8463F9E50293
:100590000347050089462E846306D7068D4663050A
:1005A000D708631EF70093D715001851AE9793D55F
:1005B0009700BA953EC05535824709C5FD573E851F
:1005C0002101E5B41387170093F7F71FA69783C699
:1005D00007039C50935597002685BE9536C23AC0B6
:1005E000AD3D69FD0247924605881377F71FBA941F
:1005F00083C70403A207D58F19C09183C9B7D20757
:10060000D18375BF1C51A181BE95813D45F906047A
:10061000938404031374E41FA29483C7140003C7D4
:100620000400A207D98F61BF1C519D81BE9535354D
:1006300051F513152400938404031375C51F2695E3
:10064000D9399317450055BF85473E858280EFF223
:100650003FA51301C1FC23A0050032842EC0DD3963
:100660002D47634E0502931725003705002013051B
:1006700005043E95044131479DC082451374E40F43
:1006800084C103C7040005C303C51400EF10E010C4
:100690001377150009EB01C4118911C129473A8567
:1006A0001301410319B403C5140023800400EF10A3
:1006B000C00F937615000D47FDF219C0118979FD21
:1006C00081452685C13B0947631AE504401093879D
:1006D000641F9386642322873E853AC436C23EC097
:1006E0001D3922478247924608C3C1071107E39587
:1006F000F6FE930704010C400D4581C926853EC0D6
:10070000513B054782476371A7021104E39587FEB9
:1007100091470547E305F5F8354751B79146054739
:10072000E30FD5F6E36AA7FE03C7C40383C6B40389
:100730002207558F4207418793060020E31ED7FC0E
:1007400083C7740403C76404A207D98F6388071C96
:100750003EC0DC5403C7040405463EC282479306EC
:10076000F7FFA381E4009CCC93F6F60FE366D6FA7C
:1007700083C2D40393960201C1822395D400C9DEBB
:100780009386F2FFB3F65600C1FA83C6240403C66B
:100790001404A206D18E93970601C1873EC68357E3
:1007A000C1003EC42394F40093F6F700B5F603C4E9
:1007B000440483C634042204558C09E813850405D7
:1007C00016CA3AC8893ED24242472A8483C6F403F5
:1007D00003C6E40316D0A206D18E36C895DE824544
:1007E0003A85C938A247C2462ACC13D64700369666
:1007F00036CE2A96E362C4F28252118C2285968507
:1008000016C832CAC138C242E36854F03707001034
:100810005517E363A7F04167551752466243F24606
:100820006372A7120D44924713072500D8C83E965D
:10083000BE9690D4DCCC94D00D466316C40E83C60D
:10084000B40503C6A405B247A206D18EDD8EC2064A
:100850003AC4C186E39206EC1385C4056D3C224779
:10086000C8D01315270082471305F51F2581E3E53E
:10087000A7EA7D5798C8D8C4130700F8A382E400FC
:100880000D47631CE40603C7140683C6040622074B
:10089000558F4207418785466311D70692472685C3
:1008A000938517005D3E31E903C7F42283C6E42235
:1008B000A38204002207558F4207ED764187938675
:1008C00056A5631CD70213850403B1343757614121
:1008D000130727256313E502138544212D3C377741
:1008E000416113072727631AE50013858421253406
:1008F00088C81385C4210534C8C4B7060020938670
:10090000460403D70600238084000507420741837D
:100910002390E6002393E400014751B31385440577
:10092000DD3A2AC03DB5A247E38807DE9A96D4D0C7
:10093000894613151700E308D4F23A950581058B13
:100940003A9515B7056455143334A4000504E1BD88
:10095000EFF20FF51C45232805007111AA84004110
:1009600095EB8346040009476374D700585015E39C
:100970000357840009E7094511016FF00FF3585040
:1009800098CCDCC89C4CE5DB13040403C0CC0145C7
:10099000E5B7BA870357A40019EF8840BE85F93E32
:1009A0007D57AA876300E5020547E376A7FC584810
:1009B000E365E5FEC9B7BE8522853EC0A53A88CC71
:1009C0008247C1B705454DBFEFF28FED8544511108
:1009D000894663F8B40A5C49894663F4F50A3284AF
:1009E00003460500AE876309D60A8D466300D60E1E
:1009F000894663189608145193D41500AE942EC2FC
:100A000093D59400B6952AC0893CAA863DE9024751
:100A10009247138314001306070393F4F41FB305DE
:100A2000960093F417009377F40F89CC83C70500E1
:100A30000565411593F6F70093174400E98FD58FAC
:100A400093F7F70F2380F50085472302F7001C5327
:100A5000935593003A85BE9532C41AC23AC0F53A0E
:100A6000AA8605E11243224602471373F31F1A9622
:100A700089CC11801374F40F23008600854723026C
:100A8000F700368531016FF04FE283470600218081
:100A90003D88C19B5D8CCDB71451A1813EC2B695F6
:100AA0002AC0653AAA8671FD924702478607130657
:100AB000070393F7E71FB297238087004204418022
:100AC0002180A38087002302970065BF14519D8178
:100AD0003EC2B6952AC05132AA860247924755F1C6
:100AE0008A071306070393F7C71FB2972AC43E85E8
:100AF0003AC23EC0EFF03F82370600F01204824750
:100B0000718D1180498C1356840012472380870011
:100B1000A380C7001356040161802381C700A3810D
:100B2000870023029700A246A9BFEFF26FD75111A9
:100B30002AC22EC0004181E9544481C65C4863E664
:100B4000F60285461DA02285153C8546AA8463E7EA
:100B5000A6008544268531016FF02FD5FD56630D23
:100B6000D50A5448E368D5FE82461C4899E381447F
:100B7000D5B78247639CF60250489384160063E31E
:100B8000C40089449247A68536C48843C53A0546C1
:100B9000E301C5FCFD556301B508A24629C15C44CB
:100BA0006376F600504863F3C700BE86B6845048AB
:100BB000850463E6C4008547E3FBD7FA894492477E
:100BC000A68536C488435D3A01CD0546E303C5F8E2
:100BD0007D566303C504A246E39BD4FC49BFF9D408
:100BE0007D56A6852285CD330DE5824791EF50488D
:100BF000144844C479166373D6028346540093E6BE
:100C00001600A302D400B9B78245268622856D3B23
:100C100079DD8547E31FF5F2FD542DBFFD1614C89D
:100C2000E9BFEFF2EFC71C49211137072000938776
:100C300007023EC0044163E4E700232C0500184D81
:100C4000914615C78247AE862A8493F7F71F3EC2A6
:100C5000E1E34C49050718CD99ED824783D684001E
:100C600013D757006366D70A232C040091463685B4
:100C700061016FF08FC303D7A40082477D1713D69D
:100C80009700718F51E7268536C4EFF03F8F0546F8
:100C90002A87A2466364A6008946D1BFFD55631426
:100CA000B5008546E9B7CC48636EB504D5DE4C483F
:100CB0002285A53D9D4645DD0546E30FC5FCFD5655
:100CC0002AC4E300D5FE2685EFF0AFF379F9224779
:100CD0002685BA853AC8EFF0EFE5938704032AC466
:100CE000C8D41306002081453E853EC6EFF0EFC50F
:100CF0004247014383D6A4006365D30283D6A40090
:100D0000E311D3FA58C8BA852685EFF0AFE208CCD4
:100D10008247124781461CC893870403BA975CCC6C
:100D2000B9B7A247B24503C51400338667008546AC
:100D30003ACA1AC8EF00903E4243524761F1050398
:100D400055BFEFF2EFB541112AC468002EC232C080
:100D50002EC6EFF02FE063440504B7070020138789
:100D600007049316250036970C4393870704024621
:100D700089C52320070023800500224719C7A30047
:100D8000A70023000700B69798C3014511C6014686
:100D90002C004800EFF0BF8B41016FF00FB12D45E3
:100DA000E5BFEFF2EFAF5D712ECEA54763080540BA
:100DB0009377F60332C42A843E860C1068083EC23C
:100DC000EFF0FF88AA876318054682579306F00262
:100DD0001307C0053EC63ED2F2473EC08247838716
:100DE00007006380D712638EE710824702D603C7DD
:100DF0000700FD4763E1E71C930700F84810A307CD
:100E0000F104B936AA87630505282247718B630C64
:100E10000732638B07281147639FE74048109254BD
:100E2000053EAA8763150540F2552685EFF0EFE2EF
:100E3000AA87631E053E86471307500E83C7070027
:100E4000639EE724F2552685EFF02FE1AA8763140D
:100E5000053E0645130600028145EFF00FAF06453B
:100E60002D46CC00EF20804985472382F40092472D
:100E700093E787003EC28647930660061307500536
:100E80002388D700A388E70023870700A3870700EC
:100E900086478254238CD700A38CE700238B07005E
:100EA000A38B0700864703C50400BE853EC0EFF054
:100EB000EFD28247930600022A87A385D700864790
:100EC0008D46238D0700A38D070003C6040063161B
:100ED000D600238A0700A38A07008647238E0700CF
:100EE000A38E0700238F0700A38F07008547238267
:100EF000F400630707268547925663E5E71C894798
:100F00001DAE824785073EC0D1BD8507D5A8638A3F
:100F100054306364D7009947CDBD63D7050093F47F
:100F2000F407B29483C404003EC8B7370000A68516
:100F30001385C7473ACC36CAEF20C04969FD93856F
:100F4000F4F90D6693F5F50F6545C247D246624741
:100F50009303F0021303C0059302E0021306063F59
:100F60006365B500811493F4F40F8C08BA95238A55
:100F700095FE05079DA091470347F10489CB914653
:100F8000E395D7E8118BE31207E89547BDBD118BB8
:100F9000631007108347A102C18BE5DBB24793853D
:100FA0000703D25793F7F71FBE95B24703C5070053
:100FB000EFF0CFC22AD62D4693050002C800EFF00D
:100FC000CF980D6601478147A1469303F0021303B2
:100FD000C0059302E0021306063F8245850713050C
:100FE0000002BE958385F5FF93F4F50F63729502B9
:100FF00063847400E39D64F09305F0021306C0055A
:101000008246BE9683860600E381B6F0E38FC6EE85
:101010008246B6973EC0E30007F0034741049307BA
:10102000500E6315F70095472302F10413070002E1
:101030009147637897008246838606006353D70002
:1010400081474810A307F1049254EFF07F90AA87DC
:1010500005F5F2552685EFF04FC0AA8711FD2AC885
:10106000064503470500E30807F00347B5009376FC
:10107000F7032305D102218B01EB2D46CC00EF2095
:101080008025C247E30A05EE81454810593EC1B7A5
:101090008307F104E3C107E8814785BBE38407DAEE
:1010A00085454810BD3EB5BB8347A102C58B639300
:1010B0000718A247918B63900716A24713F6870083
:1010C00045C255BBDC4AE37CF7E2C454BA871255EB
:1010D000BE853AC436C83EC0EFF04FCA224721C988
:1010E0003AC60546E30DC5E07D562AC46307C5121E
:1010F0008247C2460146BE85368536C0EFF0DF8C9A
:10110000AA87631A0512824622433247D04A9C4A74
:101110009305E6FF63FAB70085079CCA83C75600AC
:1011200093E71700A382F6009A87E362C3FA025599
:10113000A6853AC0EFF06FB202478256AA877D17A4
:10114000D8C619CDCDA86398070E8347A10213F71F
:10115000070171E722471376270019C2858BF9EB47
:101160009247A18B89C7924793E707043EC28257F3
:101170008644D85744D0A68518D003C507003EC47E
:10118000EFF0CFA508C42AC01385C401EFF0AF98D3
:10119000A24748C4AA8403D767001CC0A308040060
:1011A0002312E4001247232E0400232A04002308FC
:1011B000E40013770702824511E781473E856161AC
:1011C0006FE0BFEE7DD983D7A70048C8A60763E3C9
:1011D000970281470CCCA5E33EC013F7F41F71DFE3
:1011E0000255EFF02F95E30C05D0A580AA9444CCCE
:1011F0008247E9B708403EC0EFF04FB88247054745
:10120000AA859D8C6377A7007D57E312E5FC85478F
:10121000D1B78947C1B7A14739A8854729A89147C0
:1012200019A82D47E389E6CE2147AD467DB3114786
:101230006393E7009D472320040049B7EFE25FE690
:1012400021112EC223A006004C08AA84328436C67F
:10125000EFF06F942AC02DE983C714013EC0ADE7BB
:1012600003C70401098B63070718D848B306870032
:1012700063F4E6001344F7FF31C0D8489376F71FB4
:1012800063970612D2461356970083D6A600FD1622
:10129000B3F7C6003EC4A9EB09EF8844814519C9DC
:1012A00005476317E5020947A388E40089473EC064
:1012B00021A88C4C2685EFF05F877DF103C70401E0
:1012C000136707042388E400024561016FE0FFDD36
:1012D0007D576317E5000547A388E4008547C1BF34
:1012E000984488CC11E388C45245D84C5455639532
:1012F000E600EFF00F9165F1D2428C4C168516C8CE
:10130000EFF04F834DD1A2471307F01FC242338342
:10131000A700637F870683D6A20013579400338605
:10132000E70063F4C6003387F640924503C5120018
:10133000BA861A863AC81AC4D52351FDD24622432A
:101340004247CC56338365406371E30292472603DC
:101350001385060313060020B385670036C4EF101B
:10136000F079A24642472382060093169700B247BF
:10137000158C9843369798C3D8489247B697BA9633
:10138000D8443EC2D4C86373D7003687D8C4EDB5FD
:10139000D448D84463EBE60016851AC4EFF06F8694
:1013A0001DF9524722432326670223AE6400D84822
:1013B0009376F71F13070020158FA28663738700AB
:1013C000BA86CC4C524536C4EFF02F89E31505F0B0
:1013D0005245D848A24692451377F71F13050503D7
:1013E00036863A95EF10907152470546A246230281
:1013F000C700B5BF9D4765BDEFE29FCA61114C00B4
:101400002A84EFE05FF9631805168347040193F718
:101410000704638207160C501245EFF00F84631C1B
:1014200005145C5003C7B70013670702A385E700E4
:101430001844104093160701C182A182A38DD700E2
:10144000238DE700034606008D466318D6004183CE
:10145000238AE7002183A38AE70058449244238B20
:10146000070093568700238EE700A38ED70093567C
:1014700007016183A38FE70013076006238CE70051
:1014800013075005A38CE700238FD700A38B070019
:1014900023890700A389070005472382E4002685E6
:1014A000EFE03FF679E183C604000D476398E60A52
:1014B00083C6540005476393E60A83C2140013836E
:1014C00004031306002081451A8516C0EFE0FFC70C
:1014D0001307A0FAA387E422130720052388E40258
:1014E000A388E402130710062389E402A38BE420F7
:1014F000984893061004A389D402238BD4209356D2
:101500008700238CE420A38CD420935607016183A9
:1015100013062007A38DE420D844238AC420A38A7D
:10152000C420D04C8242238DD42093568700930749
:101530005005238EE420A38ED42005069356070180
:101540006183238FD420AA852387F422A38FE420EC
:10155000D0D485461685D926A382040003C514007D
:101560000146814589213335A0008347040193F763
:10157000F7FB2308F40021016FE03FB3EFE25FB215
:1015800071112A84953D01E98A852285EFE0BFE04B
:1015900019E12320040011016FE03FB1EFE25FB0D9
:1015A0002A84B304B5001305F00FEFE01FD405043F
:1015B000A30FA4FEE31994FE6FE03FAFEFE25FAE2E
:1015C0000564711113048438854513053100F9371A
:1015D000034731009307F00F6308F7001305400637
:1015E0007D14EF1010486DF03335800011016FE06D
:1015F000DFABEFE2FFAA7111B717014005471305F2
:10160000310098CB8545593F11016FE01FAAEFE2E9
:101610003FA96111B7170140416798CB8545130574
:101620007100AD3F613F2AC011E5E137024521015C
:101630006FE0BFA70545E5BFEFE29FA661112AC095
:10164000AE841304803E85454800893F83464100AF
:101650001307F00F6398E600130540067D14EF10A2
:10166000504075F0034741009307E00F01456319AF
:10167000F7000245A6851D37480089450537054511
:1016800021016FE09FA2EFE2BFA12A84B304B5005D
:1016900005040345F4FFEFE05FC5E31B94FE6FE034
:1016A000DFA0EFE2FF9F93178501E18751112A84A4
:1016B000AE8463DC0700814513057003DD37054701
:1016C000AA876364A7081374F407B147631AF40682
:1016D000936704042302F10093D78401A302F1006D
:1016E00093D704012303F10093D78400A303F100EF
:1016F000230491009307500919C4214785476314B7
:10170000E4009307700899454800A304F100A53F41
:10171000B1476316F400854513053100413529446E
:101720008545130531009D3D83473100139787019F
:101730006187635C07007D141374F40F75F031A0AA
:101740004D3DF1359307F00F41F53E8531016FE0D6
:10175000DF95EFE2FF947111AA842E8485351DC9AF
:101760000A85854523008100393F9307D00F054541
:101770006302F402930500202685313789450A85E6
:10178000313D0A858545193D034501007D896D156B
:101790001335150011016FE05F9111E5B7070020C7
:1017A00003C50700828005458280EFE27F8F6111CB
:1017B0000D446315050E096513050571EF10702AB8
:1017C0000D45EFE01FA3B7170140054798CB29440B
:1017D0007D14854548001374F40FC93375F88145AD
:1017E0000145C13585472A846314F5049305A01A81
:1017F0002145453DAA84631F850291454800793BF8
:101800008347610063969702034771009307A00A1C
:101810006310F7021304803EB70500401305900AD9
:10182000493539C11305803E7D14EF1090236DF4C6
:10183000014491A881451305900AA5356371A4025E
:1018400085473EC09304803E02458145993D39C994
:101850001305803EFD14EF10D020FDF4D1BF930797
:10186000900A3EC02144F9BF81451305A003153DF0
:1018700061F1914548001D3383474100614493F76E
:10188000070491E32144B70700202383870413341E
:101890001400B707002023808700A13B2285210187
:1018A0006FE0BF80930500204145E53B51F1E1BF6A
:1018B000B707002083C70700858B5D8D31EDEFE210
:1018C0002FFEB707002083C7670471112E87C18BD5
:1018D000368491E326068544B3B48400C504B285FA
:1018E00026853AC07D3B024715E1930500203A85E5
:1018F0003AC0993311C502477D141307072075F4C8
:10190000C9476395F40081453145613BDD3133358D
:10191000800011016FE06FF90D458280B70700204C
:1019200083C70700858B5D8D2DEDEFE26FF7B7075D
:10193000002083C767047111AE8413F70701368452
:1019400011E3260605476312E402B2856145913B27
:1019500039E59305E00F2685ED3B13341500513929
:101960003335800011016FE04FF4B18B99C7A28528
:101970001305700932C035330246B285654515330B
:1019800079FD9305C00F2685E93309C57D1493843D
:10199000042065F89305D00F0145653B69F10544C6
:1019A0007DBF0D458280B707002083C70700858B68
:1019B0005D8D4DE5EFE2CFEE854731113284AE8487
:1019C0006383F50281C98D4711456398F50093073C
:1019D000000881A82D39133515002AC01939024590
:1019E00051016FE08FEC81452545653919C10545E9
:1019F000EDB7C145480089317DD903464100834692
:101A0000D1008347C10019820347B100631E9600CD
:101A1000420737063F00718FA2070507B697BA97AE
:101A2000AA071CC0014555BF0A079983BA97034707
:101A3000A1000566130606C02A07718FBA970346F0
:101A4000E1000347910086061D823D8B3297998AFB
:101A5000BA968507E516B397D700E1B70D458280A2
:101A60007300203001A0EFE2AFE301112AC02E8401
:101A70004545854502C202C402C602C802CA02CC5C
:101A800002CEEF10204F854537052000EF10605043
:101A900091472312F1008D44F1474C003715014066
:101AA0003EC626C4EF10000A8946F1474C003715A0
:101AB00001402312D1003EC626C4EF10A008024701
:101AC000B707FFBF06043ECA231C810093070040EE
:101AD00037540040231DF1000C08916713050440A2
:101AE0003AC8231EF100EF1060131305044085452A
:101AF000EF10C022854513050440EF10A0270561B3
:101B00006FE0AFDAEFE2CFD96111B7570040AA8496
:101B10002E8432C036C2138707403A85B7050200CB
:101B2000EF10002BB7570040138707407DF5854520
:101B30003A85EF106020B70703008507375700404C
:101B4000BE8513050740EF100027B707030037577E
:101B50000040850765D593951400014693F5E50F80
:101B600013050740B7040700EF10A023938424084F
:101B700037550040A68513050540EF10C0236DD9E9
:101B80008247B304F400631E9400924781CB37551B
:101B90000040854513050540EF10E01B21016FE073
:101BA000CFD005048345F4FF3755004013050540A9
:101BB000EF10201EB70707009387470837550040EE
:101BC000BE8513050540EF10001FB7070700938778
:101BD00047086DD54DBFEFE2AFCCAA843755004022
:101BE00071112E8413050540854532C0EF10C014D5
:101BF000B7070300850737570040BE851305074028
:101C0000EF10601BB707030037570040850765D505
:101C100093951400054693F5E50F13050740B704A7
:101C20000300EF100018890437550040A6851305FE
:101C30000540EF1040186DD98247B304F400630CDF
:101C40009402B70703009387070437570040BE8507
:101C500013050740EF102016B70703003757004061
:101C6000938707047DD1130507400504EF10C012C8
:101C7000A30FA4FEE9B7375500408545130505407D
:101C8000EF10600D11016FE04FC2EFE26FC11165FF
:101C90001301C1FD85451305050202C402C602C831
:101CA00002CA02CC02CE02D002C002C2EF10802CC7
:101CB000930700022314F100371401408D473EC6FC
:101CC0002C00E147130504403EC8EF00B0679307BE
:101CD00000042314F1002C009147130504403EC872
:101CE000EF005066F16737440140938707203ECAF2
:101CF0004C08B7070C00130504803ECE02CC23101D
:101D00000102EF10C03805469305505213050480B8
:101D1000EF104048930700222310F100854723016C
:101D2000F1000A8585473EC2EF10000E8545130578
:101D30000480EF106044130141026FE00FB7EFE23F
:101D40002FB637440140AA84930704803E8593054B
:101D50000004EF10C048B7470140938707807DD546
:101D600093950401C18113050480EF1000466FE0D4
:101D7000CFB3EFE2EFB22A840305040019E16FE06C
:101D8000CFB205046D3FCDBFEFE28FB161112A8460
:101D9000635A05041305D0025D3733048040A94718
:101DA00037D79A3B3EC002C2930407A063639404F2
:101DB000A6852285EFE00FB2130505036205618554
:101DC000BD3F2285A685EFE0AFB385472A843EC29A
:101DD0002685A945EFE00FB08247AA84FD173EC0D3
:101DE000F1F729A04DFD13050003913F21016FE09C
:101DF000CFAB9247F1DF130500039137D1BFEFE27C
:101E00002FAA51112A842E8701EE19EF93070003A0
:101E10002300F400A300040031016FE00FA90504C2
:101E200083070400EDFFD5B7B7D79A3BA944014615
:101E3000938707A06368F70413061400BE853A85EC
:101E400032C43EC03AC2EFE0EFA882471247130502
:101E500005032300A400A3000400BE853A85EFE03B
:101E60002FAA224682472A87328405463E85A94505
:101E70003AC232C0FD14EFE0EFA5AA87024612472E
:101E8000D5F859BF65D6930600032300D400A300FC
:101E900004000504E1BF8307050099E78387050077
:101EA00091E72300050082800505F5B70505850546
:101EB000A30FF5FEE5B781473307F50003070700D9
:101EC00019E33E8582808507C5BF81468147A945C4
:101ED00025439302D0023307D5000307070019C337
:101EE0006394B6003E85828099E663165700B30777
:101EF000F0408506CDB7130707FD1376F70FE36AA9
:101F0000C3FE13962700B2978607BA97DDB7EFE2B4
:101F10002F99938441AD2E8683C544002A84C5350C
:101F2000373700009305C7482285B53783C554006D
:101F300005462285E935373700009305C7482285D5
:101F4000993F83D5640005462285553DB73500008D
:101F5000228593850549813783C52400054622855E
:101F6000793D373700009305474922852D3783C5D2
:101F7000140005462285613537370000930547492F
:101F80002285113F83C541AD054622858D3D6FE019
:101F9000CF91130141FD22CC374401402ACA2EC8FB
:101FA000130504809305505206D416D21AD01ECEC3
:101FB00032C636C43AC23EC0EF10202305C5130511
:101FC0000480EF10202162056185A947630CF500AC
:101FD0003547938741AA6316E5022380070005472A
:101FE0002398E1AC6244A25092520253F24352450C
:101FF000C2453246A246124782471301C10273000E
:10200000203083C60700139686016186938681AAD5
:10201000B2962380A60083C607007D46138781AA57
:102020008506E206E1862380D70083C60700E20624
:10203000E1866354D6002380C70083C70700E20708
:10204000E1873E972300070071BFEFE26F8593871A
:1020500081AA130181FD371600083EC0938681AA2C
:102060000547ED45050683870600BDE38247838665
:102070000700930740076399F604994763D6E7047E
:10208000B12B1245138441AD89352302A4002245AA
:102090002D3DA302A40032450D3D2313A40042456B
:1020A0002D352301A40052450D35A300A40062453F
:1020B000293D238AA1ACEF00C05FD9293735000044
:1020C00013050550EFF0FFCA130181026FD0FFFD29
:1020D00081171385160093F7F70FAA86E3E5F5F845
:1020E000B357F600858BC1D393071700A30F05FEE6
:1020F0000A0728102A97232CD7FC1397870161879A
:102100009DB7EFD2FFF9130141FD614681454808B3
:10211000EFE0AF838545414502C402C602C8EF0027
:102120007065854513050020EF00D0640145EF0080
:102130003059C1472C003715014037240140231482
:10214000F10002C8EF00102013050440EF00F00278
:10215000B7070E003ED04C08854713050440230402
:10216000F10202CA02CC02CE02D2EF0070039D46F9
:102170000546894513050440EF00B00DB705000280
:1021800013050440EF00D01A854513050440EF0005
:102190007018854513050440EF00900513050440B1
:1021A000EF007007930404402685EF0070076DFD73
:1021B0001305044037240140EF0010079304044046
:1021C0002685EF0010076DFD0546930500221305D7
:1021D0000440EF00F0029307D0212310F10089475B
:1021E0002301F1000A8585473EC2EF00F04113014B
:1021F000C1026FD09FEBEFD2BFEA31112E84AA84C7
:1022000085450545EF00F0582C00370500402316A2
:102210009100231481002315010023170100EF0012
:10222000105B0546854537050040EF005062930777
:1022300060222310F10089472301F1000A858547B8
:102240003EC2EF00703C854537050040EF00705EF0
:1022500051016FD09FE5130181FD2ACA2EC83705B1
:10226000004085453EC006D216D01ACE1ECC32C6DE
:1022700036C43AC2EF00105F8547631EF5008545FE
:1022800037050040EF00D05F372501408545130535
:102290000540EF00807A925082527243E2435245E9
:1022A000C2453246A246124782471301810273009B
:1022B0002030797126CCB72401402ACA2EC8138554
:1022C000044089453EC006D616D41AD21ED022CE6E
:1022D00032C636C43AC2EF0010058547631BF500CD
:1022E0002A8413850440EF0070022390A1A623A640
:1022F00081AC7244B250A25212538253E24452450E
:10230000C2453246A24612478247456173002030DB
:10231000EFD21FD9511185451305000202C002C238
:1023200002C4EF00304537140140C1472310F100CB
:10233000C1448D478A85130504403EC226C4130458
:102340000440EF00300004C831016FD01FD6EFD237
:102350003FD531110945EF00D02AE529EF00306D56
:10236000EFF0BF92EFF0FFD96537D92A15246D2C15
:10237000B1659385F5B71305703EB53D373500005F
:1023800013058549EFF0FF9E373500001305854A98
:10239000EFF03F9EB707002003A547013734000048
:1023A000EFF09F9E1305444BEFF0BF9CEFD01FE76B
:1023B000EFD09FF11305401FEF00506EB7350000BE
:1023C0009384818005469385854713858180EFE05E
:1023D0005F9703C5140010088545EFF0CFDC373553
:1023E00000001305854BEFF0DF9842450581EFF0C3
:1023F000BF99373500001305054CEFF09F9722C4B5
:102400009387C1AC9C4363800710392CB73500001B
:102410009385854C138541A6238201A6EFF0BFA7C3
:102420008545138541A6EFF09FAEB7350000938533
:10243000C54C138541A6EFF01FA6138781AC8355C9
:1024400007000546138541A6EFF07F9BB7350000D6
:102450009385054D138541A6EFF0FFA383D501A613
:102460000546138541A6EFF09F99A247138541A623
:102470009385474BEFF03FA2138541A6EFF07F8F86
:1024800037170140930707403EC04147B73500006A
:10249000D8CB130620039385454D138581A3EFE028
:1024A0005F90938781AC3EC259E5138541A6EFF05A
:1024B0009FA02A867400938541A6138581A3EFE02F
:1024C000FFD7138581A3EFF06F8B39ED138541A6FC
:1024D000EFF07F9EB2476319F5043735000013050E
:1024E000054EEFF01F898247414798CB924712472C
:1024F00083D707008507C207C1832310F70093879E
:10250000C1AC23A00700138401AD83570400C207A8
:10251000C183E38707EE138581AAEFF09F85EFF073
:10252000DFB223100400E9BD373500001305854EE6
:10253000EFF03F8465BF373500001305454FCDBF31
:10254000EFD21FB63725060093058006130505A8B0
:10255000EFF06FD16FD07FB5EFD29FB4A945AA84B9
:10256000EFD05FB713144500A9452685EFD05FB9BA
:1025700022951375F50F6FD05FB3935745001397EE
:102580002700BA9786073D893E951375F50F82801F
:10259000EFD21FB1711185468A8505461305800665
:1025A00023000100EFF00FD68A850546130580064B
:1025B000EFF06FE2834701008A8593F7F7078546BE
:1025C000094613058006A300F100238AF1AC23001D
:1025D0000100EFF02FD311016FD03FADEFD25FAC10
:1025E000711185468A850546130580062300010082
:1025F000EFF04FD18A85054613058006EFF0AFDD79
:10260000834701008A8593E7070885460946130535
:102610008006A300F100238AF1AC23000100EFF053
:102620006FCE11016FD07FA8EFD29FA761118546B1
:102630008A8505461305800623000100EFF08FCC44
:102640008A851D4613058006EFF0EFD8034501008B
:10265000138441AD1375F507EFF03FF22300A4009A
:1026600003451100EFF07FF1A300A4000345210012
:102670001375F503EFF07FF02301A400034531004B
:10268000EFF0BFEFA301A40003454100EFF0FFEE20
:102690002302A40003455100EFF03FEEA302A40083
:1026A00003456100EFF07FED2313A40021016FD0FB
:1026B000DF9FEFD2FF9E138441AD034504006111FB
:1026C00023000100EFF05FE9A300A100034514001F
:1026D000EFF09FE82301A10003452400EFF0DFE7BE
:1026E000A301A10003453400EFF01FE72302A1007E
:1026F00003454400EFF05FE6A302A1000345540048
:10270000EFF09FE52303A10003456400EFF0DFE451
:10271000A303A1008A858546214613058006EFF0B4
:102720006FBE21016FD07F98B71702409843B7065C
:10273000FFFC61111367170098C3D843758FD8C386
:102740009843B706F7FEFD16758F98C39843B706F2
:10275000FCFFFD16758F98C3D843C176FD16758FA3
:10276000D8C337079F0098C7984F1367070298CFC1
:1027700037170140832607401306074093F6F6F00B
:102780002320D7408326074093E606082320D7401E
:10279000094718CA02C002C2984FB7060140216615
:1027A0001367170098CFD842518FD8C29843C1669B
:1027B00037060200558F98C3B716024009679C423E
:1027C000F18F3EC2824785073EC0924781E782472C
:1027D000E397E7FEB71702409C431397E70063585F
:1027E000070685473EC2124785476310F706B7279D
:1027F00002409843C176FD16719B98C398431367B6
:10280000170098C3B7170240D843D8C3D843758F71
:10281000D8C3D843C166558FD8C39843B7060001C3
:10282000558F98C3984393166700E3DD06FED8439F
:10283000B7160240719BD8C3D84313672700D8C38B
:102840002147DC42B18BE39EE7FE2101828002C278
:1028500059BFEFD2FF84371702405C433704002092
:102860009146B18B130444016385D700A14663836D
:10287000D704B7376E01938707601CC0B7160240B4
:10288000DC420840918313F7F700B70700209387D5
:102890004700BA9783C50700DC4293F5F50F93F71D
:1028A00007083357B50081E7EFD0DF822A8718C0C9
:1028B0006FD0AFFF5C43B777DC02938707C075BF6B
:1028C00001A001A001A001A001A001A001A001A000
:1028D00001A001A001A001A001A001A001A001A0F0
:1028E00001A001A001A001A001A001A001A001A0E0
:1028F00001A001A001A097E1FF1F9381A1F4138122
:1029000001FC171500001305E5C097D5FF1F93853F
:10291000656F17D6FF1F1306E67263FAC5008322A0
:10292000050023A0550011059105E3EAC5FE17D562
:10293000FF1F13052571938541AE6377B5002320F2
:1029400005001105E36DB5FE930200087390023097
:102950008D427390428097D2FFFF9382A26A93E2E6
:10296000320073905230EFF03FDC97020000938208
:10297000429E7390123473002030B7270140938732
:102980000740631EF500EFD2AFF185451305002027
:102990000525814513050020212D6FD00FF1828080
:1029A0005C413707F1FF1307F7EF7D8FDC4194415E
:1029B000A207D58FD98F5CC11C4537F7F1FF1307EC
:1029C000D77FD4457D8F9C49D58F94458606D58F7A
:1029D000D98F1CC55C55370710FF7D177D8F83C7C6
:1029E0004501FD1793F7F70FD207D98F5CD5828089
:1029F0001C4589C593E717001CC58280F99BEDBF74
:102A00005C4193F5F50F01C6DD8D4CC1828093C505
:102A1000F5FFFD8DDDBF1C4593E787001CC5828057
:102A200008450D81058982801C4593E747001CC538
:102A3000828008450981058982801C4591C5370738
:102A40005000D98F1CC582803707B0FF7D17F98FE2
:102A5000D5BFA54763F8B704138765FF9317170021
:102A60008322C500BA971D433313F3001343F3FFCA
:102A700033735300B397F600B3E767005CC599471B
:102A800063E3C7047D16931726003E965859FD4709
:102A9000B397C70093C7F7FFF98FB395C500DD8DD6
:102AA0004CD982809397150003230501AE971D47EB
:102AB0003317F7001347F7FF33776700B397F60034
:102AC0005D8F18C96DBFB14763E2C70265169317E2
:102AD00026003E961859FD47B397C70093C7F7FFE6
:102AE000F98FB395C500DD8D0CD982804D16131773
:102AF000260054553A96FD47B397C70093C7F7FF92
:102B0000F58FB395C500DD8D4CD5828068454205B3
:102B1000418182805C4189C593E707405CC1828026
:102B200093F7F7BFE5BF08416D8D3335A000828074
:102B30005C41370700FA7D17F98F5CC15C41DD8D80
:102B40004CC182809C45611122C226C013F7070147
:102B500013F3F70001C7D8413363E30003D6050040
:102B60001377F60F29C7832305000147130480025A
:102B7000930480048546B395E600B376B60063926D
:102B8000D50293122700BD46B396560093C6F6FFB2
:102B9000B3F37600B3125300B3E372006397870672
:102BA0004CC90507A146E317D7FC2320750013077E
:102BB000F00F6378C70483234500A1461304800205
:102BC000930480040547B312D7003377560063940B
:102BD000E202139726000117BD45B395E50093C5A2
:102BE000F5FFB3F375003317E300B3637700639227
:102BF0008702232A550085064147E395E6FC2322F8
:102C000075001244824421018280E39C97F80CC92C
:102C100049BFE39297FE23285500F1BFEFD24FC87A
:102C20001111835445002A8428002EC06524C24611
:102C3000C204C18093F404FCB7450F0093850524BA
:102C40003685C20436C2C180EFD0CFC8458D42055B
:102C500041812312A400835704009246C207C18316
:102C6000F99BC207C1832310F40082479043E167B8
:102C70009387076A9315160063E0C7063685EFD081
:102C80006FC5AA874205418191466373D50091477C
:102C9000139507014181231EA400835704000247B6
:102CA00093E717002310F40083570400835647006E
:102CB0000356A700C207C183D18E93F757BFD58FA4
:102CC0002310F400835687008357C700D58F231441
:102CD000F40071016FD06FBD824703D56700B16703
:102CE000FD176310F502B2953685EFD0AFBE4205F1
:102CF00041819317450199E313651500A1675D8D27
:102D000059BFB387C5008E07B385C7003685EFD09E
:102D10006FBC4205418191675D8DE1BF835705001E
:102D200091C593E717002310F5008280C207C18385
:102D3000F99BC207C183C5BF8357050091C593E7BF
:102D400007102310F5008280C207C18393F7F7EFC5
:102D5000C207C183FDB78357050091C593E70720DC
:102D60002310F5008280C207C18393F7F7DFC20703
:102D7000C183FDB78357050091C593E70740231032
:102D8000F5008280C207C18393F7F7BFC207C183F2
:102D9000FDB72318B5008280035505011375F50FA3
:102DA000828093F7E50F19C293E71500C207C1832C
:102DB0002318F5008280835745010355850142059C
:102DC0005D8D6D8D220521810D8D1335150082805D
:102DD000611102C002C293D7C5012AC23EC0824718
:102DE000A205A18199CB9247D1073EC29247884361
:102DF00021016D8D3335A00082809247C181E107AA
:102E0000EDB723AEA1AC82809387C1AD9443034755
:102E1000050089E683472500920731A894430546BB
:102E20006391C60483472500034615009207631487
:102E3000D60093E707F8B7E600E093F7F70FBA96E6
:102E40002380F6408546935757003397E600544158
:102E5000ADC6938707048A07B7E600E0B69798C324
:102E600082808C4389466393D5028346150083474D
:102E700025006365D6008A06B69779BF9386E60378
:102E80008A06B69793F7F70F920765B790438D467A
:102E9000631ED60083461500834725006364D60071
:102EA0008606D9BF9386C6078606E1BF944391473D
:102EB000E39AF6F88347150085B79387070661BF45
:102EC000B7160240DC4241771307F77FF98F5D8D1B
:102ED000C8C28280EFD2CF9C371702405C43914634
:102EE0002A84B18B6385D700A146638FD706B73795
:102EF0006E01938707601CC0B7160240DC429183C5
:102F000013F7F700B70700209387C702BA9783C566
:102F10000700DC42184093F5F50F93F70708335587
:102F2000B70081E73A85EFD0EF9A48C008C448C49B
:102F3000B7170240DC43AD83FD8B13D737008A07F8
:102F4000F18BD98F93F637010D476373D700D117F3
:102F50003707002013078701BA9783C50700EFD012
:102F60006F9708C86FD06F945C43B777DC02938784
:102F700007C051B799C5371702401C4F5D8D08CF68
:102F80008280B7170240984F1345F5FF798D88CF9F
:102F9000828099C5371702405C4F5D8D48CF828093
:102FA000B7170240D84F1345F5FF798DC8CF8280FF
:102FB00099C5371702405C475D8D48C78280B717B7
:102FC0000240D8471345F5FF798DC8C782808357E3
:102FD000050037370140130707C0C207C1836306E6
:102FE000E500370700406317E50003D7250093F796
:102FF000F7F8D98F03D7650093F7F7CFC207C183DE
:10300000D98F2310F50083D745002316F50283D707
:1030100005002314F502B7370140938707C06316F4
:10302000F50083C785002318F5028547231AF500AC
:1030300082808357050091C593E717002310F500A0
:103040008280C207C183F99BC207C183C5BF835772
:10305000C50009C6DD8D2316B500828093C5F5FF36
:10306000FD8DD5BF835705010355C500ED8F420582
:10307000418189C76D8D3335A000828001458280F2
:1030800093C5F5FFC205C1812318B5008280EFD238
:103090002F8183560501F577FD17F58F83D66500DF
:1030A00003D7C5002111D58F2318F5008356C5001D
:1030B000FD779387379FF58F83D645002A842EC0EE
:1030C000D58F83D68500D58F83D6A500D58F2316BF
:1030D000F50083574501C207C18393F7F7CF5D8F92
:1030E000231AE5004800EFF0FFDEB7470140938761
:1030F000078082456315F406C2470357C400139541
:1031000017003E9542070E0541873E958C41635A54
:1031100007048605EFC01FFC930540062AC0EFC0D8
:103120007FFB824793144500930540063E85EFC020
:103130003FFD8357C400C207C18763D607020E054F
:103140009305400613052503EFC0DFF81D89C98CE0
:10315000C204C1802314940061016FC01FF5B247FF
:1031600069BF8A0545BF120593054006130525036F
:10317000EFC05FF63D89E1BF81C98357C50009678C
:10318000D98F2316F50082800357C500F977FD1704
:10319000F98FC5BF13F7F50F85471583B395B700B2
:1031A0006319F7009307C500984301CED98D8CC3EE
:1031B0008280894693074501E318D7FE93070501EE
:1031C000E5B793C5F5FFF98DDDB793F5F51F23122C
:1031D000B5008280035545001375F51F82800355A5
:1031E00005006D8D3335A000828013F7F50F8546FD
:1031F0001583B397B6006313D7020357C500F98F41
:103200000357050001454207418381CB0545A18154
:10321000B315B5006D8F3335E000828089466315A4
:10322000D70003570501E1BF03574501C9BFEFC2EE
:103230003FE7B707002003A54701B7157A0093853C
:103240000520EFC03FE91375F50F2381A1AE931759
:103250005500898F8A073E950E052390A1AE6FC059
:10326000DFE4EFC2FFE337F400E05C40AA85F99B9E
:103270005CC003C521AEEFC0FFE308C823240400EF
:103280001C4093E717001CC0B7F700E0D843058B3C
:1032900075DF9843799B98C36FC03FE1EFC25FE051
:1032A00037F400E05C40AA85F99B5CC003D501AE11
:1032B000EFC05FE008C8232404001C4093E7170018
:1032C0001CC0B7F700E0D843058B75DF9843799BA6
:1032D00098C36FC09FDD01476314E60001458280FB
:1032E000B307E5000507B386E50083C7070083C67B
:1032F000F6FFE383D7FE3385D7408280B3C7A500AE
:103300008D8B3307C50081E78D4763E9C702AA8724
:103310006371E50C83C6050085078505A38FD7FE7D
:10332000E3EAE7FE828083C6050085078505A38F53
:10333000D7FEE3EAE7FE024411018280937635006E
:10334000AA8791CA83C6050085078505A38FD7FE86
:1033500093F63700FDB79376C7FF138606FE63F535
:10336000C706711122C0C04903A3050083A38500CD
:10337000C0CB804D23A0670003A3450080CFC04D84
:1033800023A2670083A2C50003A30501938545021C
:10339000C0CF03A4C5FF23A4770023A6570023A80A
:1033A00067009387470223AE87FEE3EEC7FAE3F296
:1033B000D7F890419107910523AEC7FECDBF90414C
:1033C0009107910523AEC7FEE3EBD7FEE3E4E7F4F4
:1033D0008280828093F5F50F8347050091C7639340
:1033E000B70082800505CDBF91C1014582800000F4
:1033F000809A45418E418F804545454949498E8F88
:103400009092924F994F555559999A9B9C9D9E9F8A
:1034100041494F55A5A5A6A7A8A9AAABACADAEAF8B
:10342000B0B1B2B3B4B5B6B7B8B9BABBBCBDBEBF24
:10343000C0C1C2C3C4C5C6C7C8C9CACBCCCDCECF14
:10344000D0D1D2D3D4D5D6D7D8D9DADBDCDDDEDF04
:10345000E0E1E2E3E4E5E6E7E8E9EAEBECEDEEEFF4
:10346000F0F1F2F3F4F5F6F7F8F9FAFBFCFDFEFFE4
:103470004641543332202020000000002A2B2C3AF1
:103480003B3C3D3E5B5D7C223F7F00002F00000007
:10349000200000003A00000044617461204C6F6716
:1034A000204144430A0D000053797374656D436CE9
:1034B0006B3A00000D0A00005344206C656E3A0020
:1034C000206B420D0A00000041445B005D3B0000A0
:1034D0003B0000006E657766696C652E7478740039
:1034E000203E4F4B0A0D0000203E4552524F2031E6
:1034F0000A0D0000203E4552524F20320A0D0000B6
:103500005254435F414A55535445204F4B0A0D00D6
:10351000010000000102030405060708010203047C
:1035200005060708006CDC020204060804080C10FB
:103530000810182010203040204060800102030451
:10354000050607080102030405060708000000003D
:00000001FF
